{
  "_format": "hh-sol-artifact-1",
  "contractName": "PrizeDistribution",
  "sourceName": "contracts/PrizeDistribution.sol",
  "abi": [
    {
      "inputs": [
        {
          "internalType": "address",
          "name": "_savingsContractAddress",
          "type": "address"
        },
        {
          "internalType": "address",
          "name": "_daoGovernanceAddress",
          "type": "address"
        }
      ],
      "stateMutability": "nonpayable",
      "type": "constructor"
    },
    {
      "anonymous": false,
      "inputs": [
        {
          "indexed": true,
          "internalType": "address",
          "name": "from",
          "type": "address"
        },
        {
          "indexed": true,
          "internalType": "address",
          "name": "to",
          "type": "address"
        }
      ],
      "name": "OwnershipTransferRequested",
      "type": "event"
    },
    {
      "anonymous": false,
      "inputs": [
        {
          "indexed": true,
          "internalType": "address",
          "name": "from",
          "type": "address"
        },
        {
          "indexed": true,
          "internalType": "address",
          "name": "to",
          "type": "address"
        }
      ],
      "name": "OwnershipTransferred",
      "type": "event"
    },
    {
      "anonymous": false,
      "inputs": [
        {
          "indexed": true,
          "internalType": "address",
          "name": "proposer",
          "type": "address"
        },
        {
          "indexed": false,
          "internalType": "uint256",
          "name": "proposerShare",
          "type": "uint256"
        },
        {
          "indexed": false,
          "internalType": "uint256",
          "name": "contractShare",
          "type": "uint256"
        },
        {
          "indexed": false,
          "internalType": "uint256",
          "name": "daoShare",
          "type": "uint256"
        },
        {
          "indexed": false,
          "internalType": "address[]",
          "name": "winners",
          "type": "address[]"
        },
        {
          "indexed": false,
          "internalType": "uint256",
          "name": "winnerShare",
          "type": "uint256"
        }
      ],
      "name": "ProfitDistributed",
      "type": "event"
    },
    {
      "anonymous": false,
      "inputs": [
        {
          "indexed": false,
          "internalType": "uint256",
          "name": "requestId",
          "type": "uint256"
        },
        {
          "indexed": false,
          "internalType": "uint256[]",
          "name": "randomWords",
          "type": "uint256[]"
        },
        {
          "indexed": false,
          "internalType": "uint256",
          "name": "payment",
          "type": "uint256"
        }
      ],
      "name": "RequestFulfilled",
      "type": "event"
    },
    {
      "anonymous": false,
      "inputs": [
        {
          "indexed": false,
          "internalType": "uint256",
          "name": "requestId",
          "type": "uint256"
        },
        {
          "indexed": false,
          "internalType": "uint32",
          "name": "numWords",
          "type": "uint32"
        }
      ],
      "name": "RequestSent",
      "type": "event"
    },
    {
      "anonymous": false,
      "inputs": [
        {
          "indexed": false,
          "internalType": "address[]",
          "name": "winners",
          "type": "address[]"
        }
      ],
      "name": "WinnersSelected",
      "type": "event"
    },
    {
      "inputs": [],
      "name": "acceptOwnership",
      "outputs": [],
      "stateMutability": "nonpayable",
      "type": "function"
    },
    {
      "inputs": [],
      "name": "daoGovernance",
      "outputs": [
        {
          "internalType": "contract IDAOGovernance",
          "name": "",
          "type": "address"
        }
      ],
      "stateMutability": "view",
      "type": "function"
    },
    {
      "inputs": [
        {
          "internalType": "uint256",
          "name": "amount",
          "type": "uint256"
        }
      ],
      "name": "distributeProfit",
      "outputs": [],
      "stateMutability": "nonpayable",
      "type": "function"
    },
    {
      "inputs": [],
      "name": "getNumWords",
      "outputs": [
        {
          "internalType": "uint32",
          "name": "_numWords",
          "type": "uint32"
        }
      ],
      "stateMutability": "view",
      "type": "function"
    },
    {
      "inputs": [
        {
          "internalType": "uint256",
          "name": "_requestId",
          "type": "uint256"
        }
      ],
      "name": "getRequestStatus",
      "outputs": [
        {
          "internalType": "uint256",
          "name": "paid",
          "type": "uint256"
        },
        {
          "internalType": "bool",
          "name": "fulfilled",
          "type": "bool"
        },
        {
          "internalType": "uint256[]",
          "name": "randomWords",
          "type": "uint256[]"
        }
      ],
      "stateMutability": "view",
      "type": "function"
    },
    {
      "inputs": [],
      "name": "getWinners",
      "outputs": [
        {
          "internalType": "address[]",
          "name": "",
          "type": "address[]"
        }
      ],
      "stateMutability": "nonpayable",
      "type": "function"
    },
    {
      "inputs": [],
      "name": "lastRequestId",
      "outputs": [
        {
          "internalType": "uint256",
          "name": "",
          "type": "uint256"
        }
      ],
      "stateMutability": "view",
      "type": "function"
    },
    {
      "inputs": [],
      "name": "owner",
      "outputs": [
        {
          "internalType": "address",
          "name": "",
          "type": "address"
        }
      ],
      "stateMutability": "view",
      "type": "function"
    },
    {
      "inputs": [
        {
          "internalType": "uint256",
          "name": "_requestId",
          "type": "uint256"
        },
        {
          "internalType": "uint256[]",
          "name": "_randomWords",
          "type": "uint256[]"
        }
      ],
      "name": "rawFulfillRandomWords",
      "outputs": [],
      "stateMutability": "nonpayable",
      "type": "function"
    },
    {
      "inputs": [
        {
          "internalType": "uint256",
          "name": "",
          "type": "uint256"
        }
      ],
      "name": "requestIds",
      "outputs": [
        {
          "internalType": "uint256",
          "name": "",
          "type": "uint256"
        }
      ],
      "stateMutability": "view",
      "type": "function"
    },
    {
      "inputs": [],
      "name": "requestRandomWords",
      "outputs": [
        {
          "internalType": "uint256",
          "name": "requestId",
          "type": "uint256"
        }
      ],
      "stateMutability": "nonpayable",
      "type": "function"
    },
    {
      "inputs": [
        {
          "internalType": "uint256",
          "name": "",
          "type": "uint256"
        }
      ],
      "name": "s_requests",
      "outputs": [
        {
          "internalType": "uint256",
          "name": "paid",
          "type": "uint256"
        },
        {
          "internalType": "bool",
          "name": "fulfilled",
          "type": "bool"
        }
      ],
      "stateMutability": "view",
      "type": "function"
    },
    {
      "inputs": [],
      "name": "savingsContract",
      "outputs": [
        {
          "internalType": "contract ISavingsContract",
          "name": "",
          "type": "address"
        }
      ],
      "stateMutability": "view",
      "type": "function"
    },
    {
      "inputs": [
        {
          "internalType": "address",
          "name": "to",
          "type": "address"
        }
      ],
      "name": "transferOwnership",
      "outputs": [],
      "stateMutability": "nonpayable",
      "type": "function"
    },
    {
      "inputs": [
        {
          "internalType": "uint256",
          "name": "",
          "type": "uint256"
        }
      ],
      "name": "winners",
      "outputs": [
        {
          "internalType": "address",
          "name": "",
          "type": "address"
        }
      ],
      "stateMutability": "view",
      "type": "function"
    },
    {
      "inputs": [],
      "name": "withdrawLink",
      "outputs": [],
      "stateMutability": "nonpayable",
      "type": "function"
    }
  ],
  "bytecode": "0x60c0604052620493e0600860006101000a81548163ffffffff021916908363ffffffff1602179055506003600860046101000a81548161ffff021916908361ffff16021790555073779877a7b0d9e8603169ddbd7836e478b46247896008600a6101000a81548173ffffffffffffffffffffffffffffffffffffffff021916908373ffffffffffffffffffffffffffffffffffffffff16021790555073ab18414cd93297b0d12ac29e63ca20f515b3db46600960006101000a81548173ffffffffffffffffffffffffffffffffffffffff021916908373ffffffffffffffffffffffffffffffffffffffff1602179055506014600c55601e600d55601e600e55600a600f55600a6010553480156200011657600080fd5b506040516200409d3803806200409d83398181016040528101906200013c919062000572565b338060006008600a9054906101000a900473ffffffffffffffffffffffffffffffffffffffff16600960009054906101000a900473ffffffffffffffffffffffffffffffffffffffff168173ffffffffffffffffffffffffffffffffffffffff1660808173ffffffffffffffffffffffffffffffffffffffff16815250508073ffffffffffffffffffffffffffffffffffffffff1660a08173ffffffffffffffffffffffffffffffffffffffff16815250505050600073ffffffffffffffffffffffffffffffffffffffff168273ffffffffffffffffffffffffffffffffffffffff160362000262576040517f08c379a000000000000000000000000000000000000000000000000000000000815260040162000259906200061a565b60405180910390fd5b816000806101000a81548173ffffffffffffffffffffffffffffffffffffffff021916908373ffffffffffffffffffffffffffffffffffffffff160217905550600073ffffffffffffffffffffffffffffffffffffffff168173ffffffffffffffffffffffffffffffffffffffff1614620002e957620002e881620003d960201b60201c565b5b50505081600260006101000a81548173ffffffffffffffffffffffffffffffffffffffff021916908373ffffffffffffffffffffffffffffffffffffffff160217905550600b60009054906101000a900473ffffffffffffffffffffffffffffffffffffffff16600b60006101000a81548173ffffffffffffffffffffffffffffffffffffffff021916908373ffffffffffffffffffffffffffffffffffffffff16021790555080600360006101000a81548173ffffffffffffffffffffffffffffffffffffffff021916908373ffffffffffffffffffffffffffffffffffffffff1602179055505050620006ae565b3373ffffffffffffffffffffffffffffffffffffffff168173ffffffffffffffffffffffffffffffffffffffff16036200044a576040517f08c379a000000000000000000000000000000000000000000000000000000000815260040162000441906200068c565b60405180910390fd5b80600160006101000a81548173ffffffffffffffffffffffffffffffffffffffff021916908373ffffffffffffffffffffffffffffffffffffffff1602179055508073ffffffffffffffffffffffffffffffffffffffff1660008054906101000a900473ffffffffffffffffffffffffffffffffffffffff1673ffffffffffffffffffffffffffffffffffffffff167fed8889f560326eb138920d842192f0eb3dd22b4f139c87a2c57538e05bae127860405160405180910390a350565b600080fd5b600073ffffffffffffffffffffffffffffffffffffffff82169050919050565b60006200053a826200050d565b9050919050565b6200054c816200052d565b81146200055857600080fd5b50565b6000815190506200056c8162000541565b92915050565b600080604083850312156200058c576200058b62000508565b5b60006200059c858286016200055b565b9250506020620005af858286016200055b565b9150509250929050565b600082825260208201905092915050565b7f43616e6e6f7420736574206f776e657220746f207a65726f0000000000000000600082015250565b600062000602601883620005b9565b91506200060f82620005ca565b602082019050919050565b600060208201905081810360008301526200063581620005f3565b9050919050565b7f43616e6e6f74207472616e7366657220746f2073656c66000000000000000000600082015250565b600062000674601783620005b9565b915062000681826200063c565b602082019050919050565b60006020820190508181036000830152620006a78162000665565b9050919050565b60805160a0516139ad620006f06000396000818161030401528181611ad701528181611ec001528181611ee1015261200101526000611e8401526139ad6000f3fe608060405234801561001057600080fd5b50600436106101005760003560e01c8063a168fa8911610097578063df15c37e11610066578063df15c37e1461028c578063e0c86289146102aa578063f2fde38b146102c8578063fc2a88c3146102e457610100565b8063a168fa89146101dd578063a2fb11751461020e578063d36dfac81461023e578063d8a4676f1461025a57610100565b806385a83f09116100d357806385a83f09146101675780638796ba8c146101855780638da5cb5b146101b55780638dc654a2146101d357610100565b80631fe543e3146101055780633d4e5ddd1461012157806353a2c19a1461013f57806379ba50971461015d575b600080fd5b61011f600480360381019061011a919061247b565b610302565b005b61012961039e565b6040516101369190612556565b60405180910390f35b6101476103c4565b6040516101549190612590565b60405180910390f35b6101656104d5565b005b61016f61066a565b60405161017c91906125cc565b60405180910390f35b61019f600480360381019061019a91906125e7565b610690565b6040516101ac9190612623565b60405180910390f35b6101bd6106b4565b6040516101ca919061265f565b60405180910390f35b6101db6106dd565b005b6101f760048036038101906101f291906125e7565b610845565b604051610205929190612695565b60405180910390f35b610228600480360381019061022391906125e7565b610876565b604051610235919061265f565b60405180910390f35b610258600480360381019061025391906125e7565b6108b5565b005b610274600480360381019061026f91906125e7565b61125b565b6040516102839392919061277c565b60405180910390f35b610294611375565b6040516102a19190612878565b60405180910390f35b6102b2611a57565b6040516102bf9190612623565b60405180910390f35b6102e260048036038101906102dd91906128c6565b611cbe565b005b6102ec611cd2565b6040516102f99190612623565b60405180910390f35b7f000000000000000000000000000000000000000000000000000000000000000073ffffffffffffffffffffffffffffffffffffffff163373ffffffffffffffffffffffffffffffffffffffff1614610390576040517f08c379a000000000000000000000000000000000000000000000000000000000815260040161038790612950565b60405180910390fd5b61039a8282611cd8565b5050565b600360009054906101000a900473ffffffffffffffffffffffffffffffffffffffff1681565b600080600260009054906101000a900473ffffffffffffffffffffffffffffffffffffffff1673ffffffffffffffffffffffffffffffffffffffff1663a04bfbfd6040518163ffffffff1660e01b8152600401600060405180830381865afa158015610434573d6000803e3d6000fd5b505050506040513d6000823e3d601f19601f8201168201806040525081019061045d9190612a48565b905063ffffffff8016815111156104a9576040517f08c379a00000000000000000000000000000000000000000000000000000000081526004016104a090612b03565b60405180910390fd5b60016064600583516104bb9190612b52565b6104c59190612bc3565b6104cf9190612bf4565b91505090565b600160009054906101000a900473ffffffffffffffffffffffffffffffffffffffff1673ffffffffffffffffffffffffffffffffffffffff163373ffffffffffffffffffffffffffffffffffffffff1614610565576040517f08c379a000000000000000000000000000000000000000000000000000000000815260040161055c90612c74565b60405180910390fd5b60008060009054906101000a900473ffffffffffffffffffffffffffffffffffffffff169050336000806101000a81548173ffffffffffffffffffffffffffffffffffffffff021916908373ffffffffffffffffffffffffffffffffffffffff1602179055506000600160006101000a81548173ffffffffffffffffffffffffffffffffffffffff021916908373ffffffffffffffffffffffffffffffffffffffff1602179055503373ffffffffffffffffffffffffffffffffffffffff168173ffffffffffffffffffffffffffffffffffffffff167f8be0079c531659141344cd1fd0a4f28419497f9722a3daafe3b4186f6b6457e060405160405180910390a350565b600260009054906101000a900473ffffffffffffffffffffffffffffffffffffffff1681565b600581815481106106a057600080fd5b906000526020600020016000915090505481565b60008060009054906101000a900473ffffffffffffffffffffffffffffffffffffffff16905090565b6106e5611de0565b60006008600a9054906101000a900473ffffffffffffffffffffffffffffffffffffffff1690508073ffffffffffffffffffffffffffffffffffffffff1663a9059cbb338373ffffffffffffffffffffffffffffffffffffffff166370a08231306040518263ffffffff1660e01b8152600401610762919061265f565b602060405180830381865afa15801561077f573d6000803e3d6000fd5b505050506040513d601f19601f820116820180604052508101906107a39190612ca9565b6040518363ffffffff1660e01b81526004016107c0929190612cd6565b6020604051808303816000875af11580156107df573d6000803e3d6000fd5b505050506040513d601f19601f820116820180604052508101906108039190612d2b565b610842576040517f08c379a000000000000000000000000000000000000000000000000000000000815260040161083990612da4565b60405180910390fd5b50565b60046020528060005260406000206000915090508060000154908060010160009054906101000a900460ff16905082565b600a818154811061088657600080fd5b906000526020600020016000915054906101000a900473ffffffffffffffffffffffffffffffffffffffff1681565b6108bd611de0565b6108c5611e70565b60008111610908576040517f08c379a00000000000000000000000000000000000000000000000000000000081526004016108ff90612e10565b60405180910390fd5b6000610912611375565b90506000600360009054906101000a900473ffffffffffffffffffffffffffffffffffffffff1673ffffffffffffffffffffffffffffffffffffffff16633b10244b6040518163ffffffff1660e01b8152600401602060405180830381865afa158015610983573d6000803e3d6000fd5b505050506040513d601f19601f820116820180604052508101906109a79190612e30565b9050600073ffffffffffffffffffffffffffffffffffffffff168173ffffffffffffffffffffffffffffffffffffffff1603610a18576040517f08c379a0000000000000000000000000000000000000000000000000000000008152600401610a0f90612ea9565b60405180910390fd5b60005b8251811015610ae357600a8181548110610a3857610a37612ec9565b5b9060005260206000200160009054906101000a900473ffffffffffffffffffffffffffffffffffffffff1673ffffffffffffffffffffffffffffffffffffffff168273ffffffffffffffffffffffffffffffffffffffff1603610ad0576040517f08c379a0000000000000000000000000000000000000000000000000000000008152600401610ac790612f44565b60405180910390fd5b8080610adb90612f64565b915050610a1b565b506000606460105485610af69190612b52565b610b009190612bc3565b905060006064600c5486610b149190612b52565b610b1e9190612bc3565b905060006064600d5487610b329190612b52565b610b3c9190612bc3565b90506000600360009054906101000a900473ffffffffffffffffffffffffffffffffffffffff1673ffffffffffffffffffffffffffffffffffffffff16638b73a46b6040518163ffffffff1660e01b8152600401602060405180830381865afa158015610bad573d6000803e3d6000fd5b505050506040513d601f19601f82011682018060405250810190610bd19190612ca9565b82610bdc9190612bc3565b905060006064600e5489610bf09190612b52565b610bfa9190612bc3565b90506000875182610c0b9190612bc3565b905060006064600f548b610c1f9190612b52565b610c299190612bc3565b90506000600260009054906101000a900473ffffffffffffffffffffffffffffffffffffffff1673ffffffffffffffffffffffffffffffffffffffff1663a04bfbfd6040518163ffffffff1660e01b8152600401600060405180830381865afa158015610c9a573d6000803e3d6000fd5b505050506040513d6000823e3d601f19601f82011682018060405250810190610cc39190612a48565b90506000815183610cd49190612bc3565b9050600260009054906101000a900473ffffffffffffffffffffffffffffffffffffffff1673ffffffffffffffffffffffffffffffffffffffff1663e2dc35e08b8b6040518363ffffffff1660e01b8152600401610d33929190612cd6565b600060405180830381600087803b158015610d4d57600080fd5b505af1158015610d61573d6000803e3d6000fd5b505050506000600360009054906101000a900473ffffffffffffffffffffffffffffffffffffffff1673ffffffffffffffffffffffffffffffffffffffff1663d211bc3f6040518163ffffffff1660e01b8152600401600060405180830381865afa158015610dd4573d6000803e3d6000fd5b505050506040513d6000823e3d601f19601f82011682018060405250810190610dfd9190612a48565b905060005b8151811015610f5057600073ffffffffffffffffffffffffffffffffffffffff16828281518110610e3657610e35612ec9565b5b602002602001015173ffffffffffffffffffffffffffffffffffffffff1603610e94576040517f08c379a0000000000000000000000000000000000000000000000000000000008152600401610e8b9061301e565b60405180910390fd5b600260009054906101000a900473ffffffffffffffffffffffffffffffffffffffff1673ffffffffffffffffffffffffffffffffffffffff1663e2dc35e0838381518110610ee557610ee4612ec9565b5b60200260200101518a6040518363ffffffff1660e01b8152600401610f0b929190612cd6565b600060405180830381600087803b158015610f2557600080fd5b505af1158015610f39573d6000803e3d6000fd5b505050508080610f4890612f64565b915050610e02565b5060005b83518110156110a257600073ffffffffffffffffffffffffffffffffffffffff16848281518110610f8857610f87612ec9565b5b602002602001015173ffffffffffffffffffffffffffffffffffffffff1603610fe6576040517f08c379a0000000000000000000000000000000000000000000000000000000008152600401610fdd906130b0565b60405180910390fd5b600260009054906101000a900473ffffffffffffffffffffffffffffffffffffffff1673ffffffffffffffffffffffffffffffffffffffff1663e2dc35e085838151811061103757611036612ec9565b5b6020026020010151856040518363ffffffff1660e01b815260040161105d929190612cd6565b600060405180830381600087803b15801561107757600080fd5b505af115801561108b573d6000803e3d6000fd5b50505050808061109a90612f64565b915050610f54565b5060005b8c518110156111f457600073ffffffffffffffffffffffffffffffffffffffff168d82815181106110da576110d9612ec9565b5b602002602001015173ffffffffffffffffffffffffffffffffffffffff1603611138576040517f08c379a000000000000000000000000000000000000000000000000000000000815260040161112f90613142565b60405180910390fd5b600260009054906101000a900473ffffffffffffffffffffffffffffffffffffffff1673ffffffffffffffffffffffffffffffffffffffff1663e2dc35e08e838151811061118957611188612ec9565b5b6020026020010151886040518363ffffffff1660e01b81526004016111af929190612cd6565b600060405180830381600087803b1580156111c957600080fd5b505af11580156111dd573d6000803e3d6000fd5b5050505080806111ec90612f64565b9150506110a6565b508a73ffffffffffffffffffffffffffffffffffffffff167fe7b0caf632f3a0dc5084d9f3fc12e61b957acea4ad57c512506311ac669043ce8b8b8a600a8b60405161124495949392919061324e565b60405180910390a250505050505050505050505050565b600080606060006004600086815260200190815260200160002060000154116112b9576040517f08c379a00000000000000000000000000000000000000000000000000000000081526004016112b0906132f4565b60405180910390fd5b600060046000868152602001908152602001600020604051806060016040529081600082015481526020016001820160009054906101000a900460ff161515151581526020016002820180548060200260200160405190810160405280929190818152602001828054801561134d57602002820191906000526020600020905b815481526020019060010190808311611339575b5050505050815250509050806000015181602001518260400151935093509350509193909250565b60606000600654036113bc576040517f08c379a00000000000000000000000000000000000000000000000000000000081526004016113b390613386565b60405180910390fd5b60286007546113cb9190612bf4565b421161140c576040517f08c379a000000000000000000000000000000000000000000000000000000000815260040161140390613418565b60405180910390fd5b600061141960065461125b565b509150508061145d576040517f08c379a000000000000000000000000000000000000000000000000000000000815260040161145490613484565b60405180910390fd5b6000600260009054906101000a900473ffffffffffffffffffffffffffffffffffffffff1673ffffffffffffffffffffffffffffffffffffffff1663c8c59ac46040518163ffffffff1660e01b8152600401602060405180830381865afa1580156114cc573d6000803e3d6000fd5b505050506040513d601f19601f820116820180604052508101906114f09190612ca9565b90506000600260009054906101000a900473ffffffffffffffffffffffffffffffffffffffff1673ffffffffffffffffffffffffffffffffffffffff1663c428c06a6040518163ffffffff1660e01b8152600401602060405180830381865afa158015611561573d6000803e3d6000fd5b505050506040513d601f19601f820116820180604052508101906115859190612ca9565b90506000818361159591906134a4565b9050600860069054906101000a900463ffffffff1663ffffffff168110156115f2576040517f08c379a00000000000000000000000000000000000000000000000000000000081526004016115e99061354a565b60405180910390fd5b6115fa6103c4565b600860066101000a81548163ffffffff021916908363ffffffff1602179055506000600860069054906101000a900463ffffffff1663ffffffff1667ffffffffffffffff81111561164e5761164d612338565b5b60405190808252806020026020018201604052801561167c5781602001602082028036833780820191505090505b50905060006004600060065481526020019081526020016000206002018054806020026020016040519081016040528092919081815260200182805480156116e357602002820191906000526020600020905b8154815260200190600101908083116116cf575b50505050509050600860069054906101000a900463ffffffff1663ffffffff16815114611745576040517f08c379a000000000000000000000000000000000000000000000000000000000815260040161173c906135b6565b60405180910390fd5b6000600260009054906101000a900473ffffffffffffffffffffffffffffffffffffffff1673ffffffffffffffffffffffffffffffffffffffff1663f7c4cd6d6040518163ffffffff1660e01b8152600401600060405180830381865afa1580156117b4573d6000803e3d6000fd5b505050506040513d6000823e3d601f19601f820116820180604052508101906117dd9190612a48565b905060005b600860069054906101000a900463ffffffff1663ffffffff168110156119745760008584838151811061181857611817612ec9565b5b602002602001015161182a91906135d6565b90508251811061186f576040517f08c379a000000000000000000000000000000000000000000000000000000000815260040161186690613653565b60405180910390fd5b600073ffffffffffffffffffffffffffffffffffffffff1683828151811061189a57611899612ec9565b5b602002602001015173ffffffffffffffffffffffffffffffffffffffff16036118f8576040517f08c379a00000000000000000000000000000000000000000000000000000000081526004016118ef906136e5565b60405180910390fd5b82818151811061190b5761190a612ec9565b5b602002602001015185838151811061192657611925612ec9565b5b602002602001019073ffffffffffffffffffffffffffffffffffffffff16908173ffffffffffffffffffffffffffffffffffffffff168152505050808061196c90612f64565b9150506117e2565b5082600a908051906020019061198b9291906121c3565b507f32a1b5731a757f192a06ca973715ca4dbc42c2d15323cabaa74e0a2d5dc088e4600a6040516119bc9190613705565b60405180910390a1600a805480602002602001604051908101604052809291908181526020018280548015611a4657602002820191906000526020600020905b8160009054906101000a900473ffffffffffffffffffffffffffffffffffffffff1673ffffffffffffffffffffffffffffffffffffffff16815260200190600101908083116119fc575b505050505097505050505050505090565b6000611a61611de0565b611a696103c4565b600860066101000a81548163ffffffff021916908363ffffffff160217905550611ac8600860009054906101000a900463ffffffff16600860049054906101000a900461ffff16600860069054906101000a900463ffffffff16611e80565b905060405180606001604052807f000000000000000000000000000000000000000000000000000000000000000073ffffffffffffffffffffffffffffffffffffffff16634306d354600860009054906101000a900463ffffffff166040518263ffffffff1660e01b8152600401611b409190612590565b602060405180830381865afa158015611b5d573d6000803e3d6000fd5b505050506040513d601f19601f82011682018060405250810190611b819190612ca9565b8152602001600015158152602001600067ffffffffffffffff811115611baa57611ba9612338565b5b604051908082528060200260200182016040528015611bd85781602001602082028036833780820191505090505b50815250600460008381526020019081526020016000206000820151816000015560208201518160010160006101000a81548160ff0219169083151502179055506040820151816002019080519060200190611c3592919061224d565b50905050600581908060018154018082558091505060019003906000526020600020016000909190919091505580600681905550426007819055507fcc58b13ad3eab50626c6a6300b1d139cd6ebb1688a7cced9461c2f7e762665ee81600860069054906101000a900463ffffffff16604051611cb3929190613727565b60405180910390a190565b611cc6611de0565b611ccf81612097565b50565b60065481565b6000600460008481526020019081526020016000206000015411611d31576040517f08c379a0000000000000000000000000000000000000000000000000000000008152600401611d28906132f4565b60405180910390fd5b60016004600084815260200190815260200160002060010160006101000a81548160ff02191690831515021790555080600460008481526020019081526020016000206002019080519060200190611d8a92919061224d565b507f147eb1ff0c82f87f2b03e2c43f5a36488ff63ec6b730195fde4605f612f8db5182826004600086815260200190815260200160002060000154604051611dd493929190613750565b60405180910390a15050565b60008054906101000a900473ffffffffffffffffffffffffffffffffffffffff1673ffffffffffffffffffffffffffffffffffffffff163373ffffffffffffffffffffffffffffffffffffffff1614611e6e576040517f08c379a0000000000000000000000000000000000000000000000000000000008152600401611e65906137da565b60405180910390fd5b565b600a6000611e7e919061229a565b565b60007f000000000000000000000000000000000000000000000000000000000000000073ffffffffffffffffffffffffffffffffffffffff16634000aea07f00000000000000000000000000000000000000000000000000000000000000007f000000000000000000000000000000000000000000000000000000000000000073ffffffffffffffffffffffffffffffffffffffff16634306d354886040518263ffffffff1660e01b8152600401611f389190612590565b602060405180830381865afa158015611f55573d6000803e3d6000fd5b505050506040513d601f19601f82011682018060405250810190611f799190612ca9565b878787604051602001611f8e93929190613817565b6040516020818303038152906040526040518463ffffffff1660e01b8152600401611fbb939291906138cd565b6020604051808303816000875af1158015611fda573d6000803e3d6000fd5b505050506040513d601f19601f82011682018060405250810190611ffe9190612d2b565b507f000000000000000000000000000000000000000000000000000000000000000073ffffffffffffffffffffffffffffffffffffffff1663fc2a88c36040518163ffffffff1660e01b8152600401602060405180830381865afa15801561206a573d6000803e3d6000fd5b505050506040513d601f19601f8201168201806040525081019061208e9190612ca9565b90509392505050565b3373ffffffffffffffffffffffffffffffffffffffff168173ffffffffffffffffffffffffffffffffffffffff1603612105576040517f08c379a00000000000000000000000000000000000000000000000000000000081526004016120fc90613957565b60405180910390fd5b80600160006101000a81548173ffffffffffffffffffffffffffffffffffffffff021916908373ffffffffffffffffffffffffffffffffffffffff1602179055508073ffffffffffffffffffffffffffffffffffffffff1660008054906101000a900473ffffffffffffffffffffffffffffffffffffffff1673ffffffffffffffffffffffffffffffffffffffff167fed8889f560326eb138920d842192f0eb3dd22b4f139c87a2c57538e05bae127860405160405180910390a350565b82805482825590600052602060002090810192821561223c579160200282015b8281111561223b5782518260006101000a81548173ffffffffffffffffffffffffffffffffffffffff021916908373ffffffffffffffffffffffffffffffffffffffff160217905550916020019190600101906121e3565b5b50905061224991906122bb565b5090565b828054828255906000526020600020908101928215612289579160200282015b8281111561228857825182559160200191906001019061226d565b5b50905061229691906122bb565b5090565b50805460008255906000526020600020908101906122b891906122bb565b50565b5b808211156122d45760008160009055506001016122bc565b5090565b6000604051905090565b600080fd5b600080fd5b6000819050919050565b6122ff816122ec565b811461230a57600080fd5b50565b60008135905061231c816122f6565b92915050565b600080fd5b6000601f19601f8301169050919050565b7f4e487b7100000000000000000000000000000000000000000000000000000000600052604160045260246000fd5b61237082612327565b810181811067ffffffffffffffff8211171561238f5761238e612338565b5b80604052505050565b60006123a26122d8565b90506123ae8282612367565b919050565b600067ffffffffffffffff8211156123ce576123cd612338565b5b602082029050602081019050919050565b600080fd5b60006123f76123f2846123b3565b612398565b9050808382526020820190506020840283018581111561241a576124196123df565b5b835b81811015612443578061242f888261230d565b84526020840193505060208101905061241c565b5050509392505050565b600082601f83011261246257612461612322565b5b81356124728482602086016123e4565b91505092915050565b60008060408385031215612492576124916122e2565b5b60006124a08582860161230d565b925050602083013567ffffffffffffffff8111156124c1576124c06122e7565b5b6124cd8582860161244d565b9150509250929050565b600073ffffffffffffffffffffffffffffffffffffffff82169050919050565b6000819050919050565b600061251c612517612512846124d7565b6124f7565b6124d7565b9050919050565b600061252e82612501565b9050919050565b600061254082612523565b9050919050565b61255081612535565b82525050565b600060208201905061256b6000830184612547565b92915050565b600063ffffffff82169050919050565b61258a81612571565b82525050565b60006020820190506125a56000830184612581565b92915050565b60006125b682612523565b9050919050565b6125c6816125ab565b82525050565b60006020820190506125e160008301846125bd565b92915050565b6000602082840312156125fd576125fc6122e2565b5b600061260b8482850161230d565b91505092915050565b61261d816122ec565b82525050565b60006020820190506126386000830184612614565b92915050565b6000612649826124d7565b9050919050565b6126598161263e565b82525050565b60006020820190506126746000830184612650565b92915050565b60008115159050919050565b61268f8161267a565b82525050565b60006040820190506126aa6000830185612614565b6126b76020830184612686565b9392505050565b600081519050919050565b600082825260208201905092915050565b6000819050602082019050919050565b6126f3816122ec565b82525050565b600061270583836126ea565b60208301905092915050565b6000602082019050919050565b6000612729826126be565b61273381856126c9565b935061273e836126da565b8060005b8381101561276f57815161275688826126f9565b975061276183612711565b925050600181019050612742565b5085935050505092915050565b60006060820190506127916000830186612614565b61279e6020830185612686565b81810360408301526127b0818461271e565b9050949350505050565b600081519050919050565b600082825260208201905092915050565b6000819050602082019050919050565b6127ef8161263e565b82525050565b600061280183836127e6565b60208301905092915050565b6000602082019050919050565b6000612825826127ba565b61282f81856127c5565b935061283a836127d6565b8060005b8381101561286b57815161285288826127f5565b975061285d8361280d565b92505060018101905061283e565b5085935050505092915050565b60006020820190508181036000830152612892818461281a565b905092915050565b6128a38161263e565b81146128ae57600080fd5b50565b6000813590506128c08161289a565b92915050565b6000602082840312156128dc576128db6122e2565b5b60006128ea848285016128b1565b91505092915050565b600082825260208201905092915050565b7f6f6e6c792056524620563220777261707065722063616e2066756c66696c6c00600082015250565b600061293a601f836128f3565b915061294582612904565b602082019050919050565b600060208201905081810360008301526129698161292d565b9050919050565b600067ffffffffffffffff82111561298b5761298a612338565b5b602082029050602081019050919050565b6000815190506129ab8161289a565b92915050565b60006129c46129bf84612970565b612398565b905080838252602082019050602084028301858111156129e7576129e66123df565b5b835b81811015612a1057806129fc888261299c565b8452602084019350506020810190506129e9565b5050509392505050565b600082601f830112612a2f57612a2e612322565b5b8151612a3f8482602086016129b1565b91505092915050565b600060208284031215612a5e57612a5d6122e2565b5b600082015167ffffffffffffffff811115612a7c57612a7b6122e7565b5b612a8884828501612a1a565b91505092915050565b7f4e756d626572206f662077696e6e65727320657863656564732075696e74333260008201527f206d61782076616c756500000000000000000000000000000000000000000000602082015250565b6000612aed602a836128f3565b9150612af882612a91565b604082019050919050565b60006020820190508181036000830152612b1c81612ae0565b9050919050565b7f4e487b7100000000000000000000000000000000000000000000000000000000600052601160045260246000fd5b6000612b5d826122ec565b9150612b68836122ec565b9250828202612b76816122ec565b91508282048414831517612b8d57612b8c612b23565b5b5092915050565b7f4e487b7100000000000000000000000000000000000000000000000000000000600052601260045260246000fd5b6000612bce826122ec565b9150612bd9836122ec565b925082612be957612be8612b94565b5b828204905092915050565b6000612bff826122ec565b9150612c0a836122ec565b9250828201905080821115612c2257612c21612b23565b5b92915050565b7f4d7573742062652070726f706f736564206f776e657200000000000000000000600082015250565b6000612c5e6016836128f3565b9150612c6982612c28565b602082019050919050565b60006020820190508181036000830152612c8d81612c51565b9050919050565b600081519050612ca3816122f6565b92915050565b600060208284031215612cbf57612cbe6122e2565b5b6000612ccd84828501612c94565b91505092915050565b6000604082019050612ceb6000830185612650565b612cf86020830184612614565b9392505050565b612d088161267a565b8114612d1357600080fd5b50565b600081519050612d2581612cff565b92915050565b600060208284031215612d4157612d406122e2565b5b6000612d4f84828501612d16565b91505092915050565b7f556e61626c6520746f207472616e736665720000000000000000000000000000600082015250565b6000612d8e6012836128f3565b9150612d9982612d58565b602082019050919050565b60006020820190508181036000830152612dbd81612d81565b9050919050565b7f496e76616c69642070726f66697420616d6f756e740000000000000000000000600082015250565b6000612dfa6015836128f3565b9150612e0582612dc4565b602082019050919050565b60006020820190508181036000830152612e2981612ded565b9050919050565b600060208284031215612e4657612e456122e2565b5b6000612e548482850161299c565b91505092915050565b7f4e6f2070726f706f73657220666f756e64000000000000000000000000000000600082015250565b6000612e936011836128f3565b9150612e9e82612e5d565b602082019050919050565b60006020820190508181036000830152612ec281612e86565b9050919050565b7f4e487b7100000000000000000000000000000000000000000000000000000000600052603260045260246000fd5b7f50726f706f7365722063616e6e6f7420626520612077696e6e65720000000000600082015250565b6000612f2e601b836128f3565b9150612f3982612ef8565b602082019050919050565b60006020820190508181036000830152612f5d81612f21565b9050919050565b6000612f6f826122ec565b91507fffffffffffffffffffffffffffffffffffffffffffffffffffffffffffffffff8203612fa157612fa0612b23565b5b600182019050919050565b7f44414f20616464726573732063616e6e6f74206265207a65726f20616464726560008201527f7373000000000000000000000000000000000000000000000000000000000000602082015250565b60006130086022836128f3565b915061301382612fac565b604082019050919050565b6000602082019050818103600083015261303781612ffb565b9050919050565b7f5573657220616464726573732063616e6e6f74206265207a65726f206164647260008201527f6573730000000000000000000000000000000000000000000000000000000000602082015250565b600061309a6023836128f3565b91506130a58261303e565b604082019050919050565b600060208201905081810360008301526130c98161308d565b9050919050565b7f57696e6e657220616464726573732063616e6e6f74206265207a65726f20616460008201527f6472657373000000000000000000000000000000000000000000000000000000602082015250565b600061312c6025836128f3565b9150613137826130d0565b604082019050919050565b6000602082019050818103600083015261315b8161311f565b9050919050565b600081549050919050565b60008190508160005260206000209050919050565b60008160001c9050919050565b600073ffffffffffffffffffffffffffffffffffffffff82169050919050565b60006131c26131bd83613182565b61318f565b9050919050565b60006131d582546131af565b9050919050565b6000600182019050919050565b60006131f482613162565b6131fe81856127c5565b93506132098361316d565b8060005b838110156132415761321e826131c9565b61322888826127f5565b9750613233836131dc565b92505060018101905061320d565b5085935050505092915050565b600060a0820190506132636000830188612614565b6132706020830187612614565b61327d6040830186612614565b818103606083015261328f81856131e9565b905061329e6080830184612614565b9695505050505050565b7f72657175657374206e6f7420666f756e64000000000000000000000000000000600082015250565b60006132de6011836128f3565b91506132e9826132a8565b602082019050919050565b6000602082019050818103600083015261330d816132d1565b9050919050565b7f7265717565737452616e646f6d576f726473206e6f742063616c6c656420796560008201527f7400000000000000000000000000000000000000000000000000000000000000602082015250565b60006133706021836128f3565b915061337b82613314565b604082019050919050565b6000602082019050818103600083015261339f81613363565b9050919050565b7f57616974206120626974206c6f6e67657220666f722066756c66696c6c6d656e60008201527f7400000000000000000000000000000000000000000000000000000000000000602082015250565b60006134026021836128f3565b915061340d826133a6565b604082019050919050565b60006020820190508181036000830152613431816133f5565b9050919050565b7f52616e646f6d206e756d626572206e6f742079657420617661696c61626c6500600082015250565b600061346e601f836128f3565b915061347982613438565b602082019050919050565b6000602082019050818103600083015261349d81613461565b9050919050565b60006134af826122ec565b91506134ba836122ec565b92508282039050818111156134d2576134d1612b23565b5b92915050565b7f4e6f7420656e6f7567682061646472657373657320666f722073656c6563746960008201527f6f6e000000000000000000000000000000000000000000000000000000000000602082015250565b60006135346022836128f3565b915061353f826134d8565b604082019050919050565b6000602082019050818103600083015261356381613527565b9050919050565b7f52616e646f6d20776f726473206e6f7420617661696c61626c65000000000000600082015250565b60006135a0601a836128f3565b91506135ab8261356a565b602082019050919050565b600060208201905081810360008301526135cf81613593565b9050919050565b60006135e1826122ec565b91506135ec836122ec565b9250826135fc576135fb612b94565b5b828206905092915050565b7f496e646578206f7574206f6620626f756e647300000000000000000000000000600082015250565b600061363d6013836128f3565b915061364882613607565b602082019050919050565b6000602082019050818103600083015261366c81613630565b9050919050565b7f53656c65637465642077696e6e65722069732061207a65726f2061646472657360008201527f7300000000000000000000000000000000000000000000000000000000000000602082015250565b60006136cf6021836128f3565b91506136da82613673565b604082019050919050565b600060208201905081810360008301526136fe816136c2565b9050919050565b6000602082019050818103600083015261371f81846131e9565b905092915050565b600060408201905061373c6000830185612614565b6137496020830184612581565b9392505050565b60006060820190506137656000830186612614565b8181036020830152613777818561271e565b90506137866040830184612614565b949350505050565b7f4f6e6c792063616c6c61626c65206279206f776e657200000000000000000000600082015250565b60006137c46016836128f3565b91506137cf8261378e565b602082019050919050565b600060208201905081810360008301526137f3816137b7565b9050919050565b600061ffff82169050919050565b613811816137fa565b82525050565b600060608201905061382c6000830186612581565b6138396020830185613808565b6138466040830184612581565b949350505050565b600081519050919050565b600082825260208201905092915050565b60005b8381101561388857808201518184015260208101905061386d565b60008484015250505050565b600061389f8261384e565b6138a98185613859565b93506138b981856020860161386a565b6138c281612327565b840191505092915050565b60006060820190506138e26000830186612650565b6138ef6020830185612614565b81810360408301526139018184613894565b9050949350505050565b7f43616e6e6f74207472616e7366657220746f2073656c66000000000000000000600082015250565b60006139416017836128f3565b915061394c8261390b565b602082019050919050565b6000602082019050818103600083015261397081613934565b905091905056fea2646970667358221220494fbf5abdf9bb0ecb4c3ee1c015dc4c6326736a21bc07079bc61541183ddd0e64736f6c63430008140033",
  "linkReferences": {},
  "deployedLinkReferences": {}
}